:100000000C9434000C943E000C943E000C943E0082
:100010000C943E000C943E000C943E000C943E0068
:100020000C943E000C943E000C943E000C943E0058
:100030000C943E000C943E000C943E000C943E0048
:100040000C943E000C943E000C943E000C943E0038
:100050000C943E000C943E000C943E000C943E0028
:100060000C943E000C943E0011241FBECFEFD8E04C
:10007000DEBFCDBF0E9440000C948B000C940000AA
:1000800080E68AB98BE08BB920E931E0489914C049
:10009000499B12C04B9B10C05D9A88EE93E0F9011A
:1000A0003197F1F70197D9F75D9888EE93E0F90160
:1000B0003197F1F70197D9F7499914C0489B12C0BD
:1000C0004B9B10C05E9A88EE93E0F9013197F1F7EF
:1000D0000197D9F75E9888EE93E0F9013197F1F72F
:1000E0000197D9F74B99D2CF489BD0CF499BCECF20
:1000F0005E9A5D9A88EE93E0F9013197F1F70197E6
:10010000D9F75E985D9888EE93E0F9013197F1F7A1
:0A0110000197D9F7BBCFF894FFCF99
:00000001FF
