:100000000C9434000C9449000C9449000C94490061
:100010000C9449000C9449000C9449000C9449003C
:100020000C9449000C9449000C9449000C9449002C
:100030000C9449000C9449000C9449000C9449001C
:100040000C9449000C9449000C9449000C9449000C
:100050000C9449000C9449000C9449000C944900FC
:100060000C9449000C94490011241FBECFEFD8E036
:10007000DEBFCDBF12E0A0E0B1E0E6ECF0E102C0EF
:1000800005900D92AA32B107D9F70E9477000C941F
:1000900061080C94000088E08093C10086E08093A2
:1000A000C20087E68093C4000895982F8091C00015
:1000B00085FFFCCF9093C60008959C01DC010D9054
:1000C0000020E9F71197A81BB90B90E00AC0E20FD6
:1000D000F31F40818091C00085FFFCCF4093C60094
:1000E0009F5FE92FF0E0EA17FB0788F308952F924E
:1000F0003F924F925F926F927F928F929F92AF92B8
:10010000BF92CF92DF92EF92FF920F931F93DF93F4
:10011000CF93CDB7DEB7AB970FB6F894DEBF0FBE67
:10012000CDBF80EF8AB99FEF94B98FE087B995B9B9
:10013000DE011F96E6E1F1E08CE001900D92815026
:10014000E1F7DE015B96EAE0F1E08CE001900D92D0
:100150008150E1F7DE011596E0E0F1E08AE00190E0
:100160000D928150E1F787E880937A0085EC8093C7
:100170007C0088E08093C10086E08093C20087E61F
:100180008093C40040E2842E4EE4942E3FE0632E20
:10019000712C6C0E7D1E2BE1222E312C2C0E3D1E5F
:1001A00080917A00806480937A0080917A006091D7
:1001B000780020917900B22EAA2470E06A297B2968
:1001C00080E090E00E94BD052DEC3CEC4CE85FE344
:1001D0000E9465032AE037ED43E251E40E945F0488
:1001E00020E030E048E452E40E94070320E030E0E1
:1001F00040E251E40E9465030E9469059B01AC0145
:1002000018992DC0CB016AE070E00E94D2078827C0
:1002100077FD8095982F0E940B0520E030E040E1AB
:1002200051E40E94650320E030E040EA50E40E947F
:100230005F0420E030E040E052E40E94380320E018
:1002400030E040E251E40E9465030E946905C40168
:100250000197F1F76B019BE0E92EF12C07C0C40177
:100260000197F1F769018AE0E82EF12CC60164E6F6
:1002700070E00E94D207CB016AE070E00E94D207D2
:100280008C01C6016AE070E00E94D207CB016AE0EF
:1002900070E00E94D2079C01C6016AE070E00E94F3
:1002A000D207DC01F301E00FF11F80818BA7020D63
:1002B000131DF801F081FAA7F301E20FF31F80810B
:1002C00089A7E5E0F0E0EC0FFD1F2E0F3F1FF901BD
:1002D000F081F8A7F301EA0FFB1F80818FA3A20D25
:1002E000B31D4C90F301EE0DFF1D5080E20CF31C8A
:1002F000F701F08000E010E0FBA5F8B98AA58BB902
:100300009DEF95B9C4010197F1F7E9A5E8B9F8A502
:10031000FBB98BEF85B9C4010197F1F79FA198B99B
:100320004BB8E7EFE5B9C4010197F1F758B8FBB84E
:10033000FFEEF5B9C601BE016F5F7F4F4AE050E0A6
:100340000E943008CE0101960E945D008091C0009D
:1003500085FFFCCF8DE08093C6008091C00085FFB3
:10036000FCCF9AE09093C6000F5F1F4F0630110537
:1003700009F0C2CF15CFA0E0B0E0E1ECF1E00C94C1
:10038000F907DC012B01FA019C91923008F439C184
:10039000EB018881823008F433C1943069F48430F1
:1003A00009F02FC111969C9111978981981709F432
:1003B00028C1A2E2B1E025C1843009F421C1823014
:1003C000A9F4923009F01DC19A01AD0188E0EA015B
:1003D0000990AE01E90109929E018150C1F7E20145
:1003E000898111969C918923818308C1923009F4F7
:1003F00007C112962D903C901397EB018A819B8147
:100400001496AD90BD90CD90DC901797EC80FD8058
:100410000E811F819101281B390BB90137FF04C0E0
:1004200066277727621B730B603271050CF061C081
:10043000121613066CF537014801062E04C0969477
:100440008794779467940A94D2F721E030E040E0F3
:1004500050E004C0220F331F441F551F6A95D2F786
:1004600021503040404050402E213F214023512315
:10047000211531054105510521F021E030E040E032
:1004800050E079018A01E628F728082919293CC09B
:10049000232BD1F1260E371E35014601062E04C04E
:1004A00096948794779467940A94D2F721E030E089
:1004B00040E050E004C0220F331F441F551F6A95CF
:1004C000D2F721503040404050402A213B214C215E
:1004D0005D21211531054105510521F021E030E074
:1004E00040E050E059016A01A628B728C828D92859
:1004F0000BC0821593052CF01C01AA24BB246501B6
:1005000003C0EE24FF24870111969C91D20111961D
:100510008C91981709F445C0992339F0A8019701E7
:100520002A193B094C095D0906C0A60195012E193F
:100530003F09400B510B57FD08C0118233822282C4
:1005400024833583468357831DC081E081833382B2
:10055000228288279927DC01821B930BA40BB50B01
:1005600084839583A683B7830DC0220F331F441F56
:10057000551F248335834683578382819381019756
:10058000938382832481358146815781DA01C901B1
:100590000197A109B1098F5F9F4FAF4FBF4328F368
:1005A0000BC0918333822282EA0CFB1C0C1D1D1DA3
:1005B000E482F5820683178383E08083248135817A
:1005C0004681578157FF1AC0C901AA2797FDA095F8
:1005D000BA2F81709070A070B0705695479537957E
:1005E0002795822B932BA42BB52B84839583A683ED
:1005F000B78382819381019693838283DF0101C057
:10060000D201CD01CDB7DEB7E2E10C941508A0E22E
:10061000B0E0EDE0F3E00C94050869837A838B8306
:100620009C832D833E834F835887E9E0EE2EF12C87
:10063000EC0EFD1ECE010196B7010E945A078E01F5
:100640000F5E1F4FCE010596B8010E945A078A8996
:1006500091E089278A8BC701B801AE01475E5F4FE1
:100660000E94BB010E948506A096E6E00C9421083A
:10067000A0E2B0E0EEE3F3E00C94050869837A832E
:100680008B839C832D833E834F835887F9E0EF2E25
:10069000F12CEC0EFD1ECE010196B7010E945A0707
:1006A0008E010F5E1F4FCE010596B8010E945A07BA
:1006B000C701B801AE01475E5F4F0E94BB010E94B7
:1006C0008506A096E6E00C942108A0E2B0E0EBE6F7
:1006D000F3E00C94F90769837A838B839C832D83E1
:1006E0003E834F835887CE010196BE01675F7F4FDF
:1006F0000E945A07CE010596BE016F5E7F4F0E9491
:100700005A079985923088F089898230C8F09430F0
:1007100019F4823051F404C0843029F4923081F409
:1007200082E291E0C6C0923049F420E09A858A893D
:10073000981321E02A87CE010996BBC0823049F484
:1007400020E09A858A89981321E02A8BCE01419670
:10075000B0C02D843E844F8458886D887E888F88F1
:10076000988CEE24FF248701AA24BB24650140E075
:1007700050E060E070E0E0E0F0E0C1018170907076
:10078000892BE9F0E60CF71C081D191D9A01AB0135
:100790002A0D3B1D4C1D5D1D80E090E0A0E0B0E007
:1007A000E614F7040805190520F481E090E0A0E0C4
:1007B000B0E0BA01A901480F591F6A1F7B1FAA0C9C
:1007C000BB1CCC1CDD1C97FE08C081E090E0A0E0C3
:1007D000B0E0A82AB92ACA2ADB2A3196E032F1050C
:1007E00049F0660C771C881C991C569447943794E2
:1007F0002794C3CFFA85EA892B893C898B859C8510
:10080000280F391F2E5F3F4F17C0CA0181709070AB
:10081000892B61F016950795F794E79480E090E0B6
:10082000A0E0B0E8E82AF92A0A2B1B2B76956795F9
:10083000579547952F5F3F4F77FDE7CF0CC0440F8B
:10084000551F661F771F17FD4160EE0CFF1C001F30
:10085000111F21503040403090E0590790E0690767
:1008600090E4790760F32B8F3C8FDB01CA018F770F
:100870009070A070B07080349105A105B10561F44D
:1008800047FD0AC0E114F1040105110529F0405C9F
:100890005F4F6F4F7F4F40781A8EFE1711F081E047
:1008A0008A8F4D8F5E8F6F8F78A383E0898FCE0103
:1008B00049960E948506A096E2E10C941508A8E1ED
:1008C000B0E0E5E6F4E00C94010869837A838B8359
:1008D0009C832D833E834F835887B9E0EB2EF12C08
:1008E000EC0EFD1ECE010196B7010E945A078E0143
:1008F0000F5E1F4FCE010596B8010E945A07298549
:10090000223008F47EC03989323010F4B8017CC03E
:100910008A859A8989278A87243011F0223031F418
:10092000231709F06EC062E271E06EC0343039F412
:100930001D861E861F86188A1C861B8604C03230C0
:1009400021F484E08987B7015FC02B853C858B89C2
:100950009C89281B390B3C872B87ED84FE840F85EF
:100960001889AD88BE88CF88D88CEA14FB040C05A2
:100970001D0540F4EE0CFF1C001F111F21503040DC
:100980003C872B8720E030E040E050E080E090E0C2
:10099000A0E0B0E460E070E0EA14FB040C051D0583
:1009A00040F0282B392B4A2B5B2BEA18FB080C094B
:1009B0001D09B695A79597958795EE0CFF1C001F0E
:1009C000111F6F5F7F4F6F31710531F7DA01C90178
:1009D0008F779070A070B07080349105A105B1053B
:1009E00061F427FD0AC0E114F1040105110529F0A5
:1009F000205C3F4F4F4F5F4F20782D873E874F87BA
:100A0000588BBE01675F7F4FCB010E9485066896B9
:100A1000EAE00C941D08A8E0B0E0E1E1F5E00C94F8
:100A200002089B01AC0183E08983DA01C9018827B0
:100A3000B7FD83959927AA27BB27B82E2115310525
:100A40004105510519F482E089833AC08823A9F051
:100A5000203080E0380780E0480780E8580729F414
:100A600060E070E080E09FEC30C0EE24FF2487015E
:100A7000E21AF30A040B150B02C079018A018EE118
:100A8000C82ED12CDC82CB82ED82FE820F831887A8
:100A9000C801B7010E94360601971816190684F49A
:100AA000082E04C0EE0CFF1C001F111F0A94D2F781
:100AB000ED82FE820F831887C81AD90ADC82CB82A6
:100AC000BA82CE0101960E9485062896E9E00C9430
:100AD0001E08ACE0B0E0EFE6F5E00C94090869838D
:100AE0007A838B839C83CE010196BE016B5F7F4F1F
:100AF0000E945A078D81823061F1823050F184303A
:100B000021F48E81882351F12EC02F81388537FD45
:100B100020C06E812F3131051CF06623F9F023C00F
:100B20008EE190E0821B930B29853A854B855C858D
:100B300004C056954795379527958A95D2F7662331
:100B4000B1F050954095309521953F4F4F4F5F4FF5
:100B50000EC020E030E040E050E009C02FEF3FEF52
:100B60004FEF5FE704C020E030E040E050E8B9011B
:100B7000CA012C96E2E00C942508A8E0B0E0E3EC72
:100B8000F5E00C9401087B018C016115710581056C
:100B9000910519F482E0898360C083E089838EE146
:100BA000C82ED12CDC82CB82ED82FE820F83188787
:100BB000C801B7010E943606FC013197F7FF3BC020
:100BC000222733272E1B3F0B57016801022E04C03A
:100BD000D694C794B794A7940A94D2F740E050E013
:100BE00060E070E081E090E0A0E0B0E004C0880F39
:100BF000991FAA1FBB1F2A95D2F70197A109B10916
:100C00008E219F21A023B1230097A105B10521F0DA
:100C100041E050E060E070E04A295B296C297D29C1
:100C20004D835E836F8378878EE190E08E1B9F0BF0
:100C30009C838B8312C0309781F00E2E04C0EE0C83
:100C4000FF1C001F111F0A94D2F7ED82FE820F8352
:100C50001887CE1ADF0ADC82CB821A82CE01019677
:100C60000E9485062896EAE00C941D08EF92FF92F8
:100C70000F931F937B018C0180E0E81680E0F8065B
:100C800081E0080780E0180788F48FEFE816F10488
:100C90000105110531F028F088E090E0A0E0B0E017
:100CA00017C080E090E0A0E0B0E012C080E0E8165D
:100CB00080E0F80680E0080781E0180728F088E166
:100CC00090E0A0E0B0E004C080E190E0A0E0B0E0FF
:100CD00020E230E040E050E0281B390B4A0B5B0B70
:100CE00004C016950795F794E7948A95D2F7F70113
:100CF000E65DFE4F8081281B310941095109C90178
:100D00001F910F91FF90EF900895DF92EF92FF9265
:100D10000F931F93FC01E480F58006811781D18039
:100D20008081823048F480E090E0A0E1B0E0E82AE1
:100D3000F92A0A2B1B2BA5C0843009F49FC08230EE
:100D400021F4EE24FF24870105C0E114F10401051C
:100D5000110519F4E0E0F0E096C0628173819FEF25
:100D6000623879070CF05BC022E83FEF261B370B97
:100D70002A3131052CF020E030E040E050E02AC07C
:100D8000B801A701022E04C076956795579547953F
:100D90000A94D2F781E090E0A0E0B0E004C0880FB0
:100DA000991FAA1FBB1F2A95D2F70197A109B10964
:100DB0008E219F21A023B1230097A105B10521F029
:100DC00081E090E0A0E0B0E09A01AB01282B392B44
:100DD0004A2B5B2BDA01C9018F779070A070B0703D
:100DE00080349105A105B10539F427FF09C0205CC5
:100DF0003F4F4F4F5F4F04C0215C3F4F4F4F5F4FFE
:100E0000E0E0F0E02030A0E03A07A0E04A07A0E4EC
:100E10005A0710F0E1E0F0E079018A0127C060385C
:100E2000710564F5FB01E158FF4FD801C7018F77C9
:100E30009070A070B07080349105A105B10539F4AF
:100E4000E7FE0DC080E490E0A0E0B0E004C08FE3D6
:100E500090E0A0E0B0E0E80EF91E0A1F1B1F17FF8C
:100E600005C016950795F794E794319687E0169597
:100E70000795F794E7948A95D1F705C0EE24FF24EF
:100E80008701EFEFF0E06E2F679566276795902F4B
:100E90009F77D794DD24D7948E2F8695492F462BA4
:100EA000582F5D29B701CA011F910F91FF90EF9054
:100EB000DF900895FC01DB01408151812281622F86
:100EC0006F7770E0221F2227221F9381892F880FBE
:100ED000822B282F30E0991F9927991F11969C93F8
:100EE000119721153105A9F54115510561057105C8
:100EF00011F482E037C082E89FEF13969C938E93A3
:100F000012979A01AB0167E0220F331F441F551F50
:100F10006A95D1F783E08C930DC0220F331F441FD5
:100F2000551F12968D919C911397019713969C9340
:100F30008E931297203080E0380780E0480780E4E5
:100F4000580758F314962D933D934D935C93179740
:100F500008952F3F310579F441155105610571055B
:100F600019F484E08C93089564FF03C081E08C93AE
:100F700012C01C9210C02F57304013963C932E93F2
:100F8000129783E08C9387E0440F551F661F771FED
:100F90008A95D1F7706414964D935D936D937C930D
:100FA0001797089597FB092E07260AD077FD04D0DE
:100FB0000CD006D000201AF4709561957F4F0895EB
:100FC000F6F7909581959F4F0895AA1BBB1B51E1A1
:100FD00007C0AA1FBB1FA617B70710F0A61BB70BA9
:100FE000881F991F5A95A9F780959095BC01CD014E
:100FF00008952F923F924F925F926F927F928F92BD
:101000009F92AF92BF92CF92DF92EF92FF920F9397
:101010001F93CF93DF93CDB7DEB7CA1BDB0B0FB6A1
:10102000F894DEBF0FBECDBF09942A88398848885E
:101030005F846E847D848C849B84AA84B984C884F4
:10104000DF80EE80FD800C811B81AA81B981CE0FEB
:10105000D11D0FB6F894DEBF0FBECDBFED010895D0
:10106000FB019F01E8944230C4F04532B4F44A30A9
:1010700029F497FB1EF4909581959F4F642F772755
:101080000E94E507805D8A330CF0895D8193CB0176
:101090000097A1F716F45DE251931082C9010C94F8
:1010A0005108DC01FC01672F71917723E1F732973A
:1010B00004C07C916D9370836291AE17BF07C8F333
:0610C0000895F894FFCF33
:1010C600B080D0C0E0E0F080F0E0300050406060DA
:1010D6007000706030700F060B0F060D0D070F07BE
:1010E60009010000000000000000000102020303E5
:1010F60003030404040404040404050505050505A6
:101106000505050505050505050506060606060683
:101116000606060606060606060606060606060669
:101126000606060606060606060607070707070753
:101136000707070707070707070707070707070739
:101146000707070707070707070707070707070729
:101156000707070707070707070707070707070719
:101166000707070707070707070708080808080803
:1011760008080808080808080808080808080808E9
:1011860008080808080808080808080808080808D9
:1011960008080808080808080808080808080808C9
:1011A60008080808080808080808080808080808B9
:1011B60008080808080808080808080808080808A9
:1011C6000808080808080808080808080808080899
:1011D6000808080808080808080808080808080889
:0A11E60008080808080808080808AF
:00000001FF
